{
  "contractName": "Donation",
  "abi": [
    {
      "constant": true,
      "inputs": [
        {
          "internalType": "uint256",
          "name": "",
          "type": "uint256"
        }
      ],
      "name": "User",
      "outputs": [
        {
          "internalType": "address",
          "name": "",
          "type": "address"
        }
      ],
      "payable": false,
      "stateMutability": "view",
      "type": "function"
    },
    {
      "constant": false,
      "inputs": [
        {
          "internalType": "uint256",
          "name": "giftId",
          "type": "uint256"
        }
      ],
      "name": "donate",
      "outputs": [
        {
          "internalType": "uint256",
          "name": "",
          "type": "uint256"
        }
      ],
      "payable": false,
      "stateMutability": "nonpayable",
      "type": "function"
    },
    {
      "constant": true,
      "inputs": [],
      "name": "getUser",
      "outputs": [
        {
          "internalType": "address[4]",
          "name": "",
          "type": "address[4]"
        }
      ],
      "payable": false,
      "stateMutability": "view",
      "type": "function"
    }
  ],
  "bytecode": "0x608060405234801561001057600080fd5b506102b8806100206000396000f3fe608060405234801561001057600080fd5b50600436106100415760003560e01c80633fbb468a14610046578063832880e7146100b4578063f14faf6f146100fa575b600080fd5b6100726004803603602081101561005c57600080fd5b810190808035906020019092919050505061013c565b604051808273ffffffffffffffffffffffffffffffffffffffff1673ffffffffffffffffffffffffffffffffffffffff16815260200191505060405180910390f35b6100bc61016f565b6040518082600460200280838360005b838110156100e75780820151818401526020810190506100cc565b5050505090500191505060405180910390f35b6101266004803603602081101561011057600080fd5b81019080803590602001909291905050506101f0565b6040518082815260200191505060405180910390f35b6000816004811061014957fe5b016000915054906101000a900473ffffffffffffffffffffffffffffffffffffffff1681565b610177610261565b60006004806020026040519081016040528092919082600480156101e6576020028201915b8160009054906101000a900473ffffffffffffffffffffffffffffffffffffffff1673ffffffffffffffffffffffffffffffffffffffff168152602001906001019080831161019c575b5050505050905090565b6000808210158015610203575060038211155b61020c57600080fd5b336000836004811061021a57fe5b0160006101000a81548173ffffffffffffffffffffffffffffffffffffffff021916908373ffffffffffffffffffffffffffffffffffffffff160217905550819050919050565b604051806080016040528060049060208202803883398082019150509050509056fea265627a7a72315820883ce0fdfc3f120408d1534a180a4c0cbff6c19c795c808bf8a36ef3c9b89a0264736f6c63430005100032",
  "source": "pragma solidity ^0.5.0;\n\ncontract Donation {\n    address[4] public User;\n\n    function donate(uint giftId) public returns (uint) {\n        require(giftId >= 0 && giftId <=3);\n        User[giftId] = msg.sender;\n        return giftId;\n    }\n\n    function getUser() public view returns (address[4] memory) {\n        return User;\n    }\n}\n",
  "sourcePath": "/home/fintech/Documents/Assignment3/contracts/Donation.sol",
  "compiler": {
    "name": "solc",
    "version": "0.5.16+commit.9c3226ce.Emscripten.clang"
  },
  "schemaVersion": "3.3.3",
  "updatedAt": "2021-01-16T11:40:15.573Z",
  "networkType": "ethereum",
  "devdoc": {
    "methods": {}
  },
  "userdoc": {
    "methods": {}
  }
}